# If message sequence number is too high, send a resend request for
# missing messages

iCONNECT
I8=FIX.4.4|35=A|34=1|49=TW|52=<TIME>|56=ISLD|98=0|108=30|
E8=FIX.4.4|9=61|35=A|34=1|49=ISLD|52=00000000-00:00:00.000|56=TW|98=0|108=30|10=0|

I8=FIX.4.4|35=D|34=2|49=TW|52=<TIME>|56=ISLD|11=ID|21=3|40=1|54=1|55=INTC|60=<TIME>|
E8=FIX.4.4|9=121|35=8|49=IMANDRA|56=BANZAI|34=2|52=20170805-17:12:55.209|55=INTC|37=ID|11=ID|17=Test|150=B|39=0|54=1|58=Dummy|151=0.000000|14=0.000000|6=0.000000|10=157|:wqa

I8=FIX.4.4|35=D|34=3|49=TW|52=<TIME>|56=ISLD|11=ID|21=3|40=1|54=1|55=INTC|60=<TIME>|
E8=FIX.4.4|9=121|35=8|49=IMANDRA|56=BANZAI|34=3|52=20170805-17:12:55.411|55=INTC|37=ID|11=ID|17=Test|150=B|39=0|54=1|58=Dummy|151=0.000000|14=0.000000|6=0.000000|10=153|

# Sending message 7 when last message sent was 3
I8=FIX.4.4|35=0|34=7|49=TW|52=<TIME>|56=ISLD|

# Receive Resend request for messages 4 to 6
E8=FIX.4.4|9=58|35=2|34=4|49=ISLD|52=00000000-00:00:00.000|56=TW|7=4|16=0|10=0|
# Send Resend request for messages 2 to 3
I8=FIX.4.4|35=2|34=8|49=TW|52=<TIME>|56=ISLD|7=2|16=3|

E8=FIX.4.4|9=152|35=8|49=IMANDRA|56=BANZAI|34=2|43=Y|52=20170805-20:26:49.729|122=20170805-20:26:49.122|55=INTC|37=ID|11=ID|17=Test|150=B|39=0|54=1|58=Dummy|151=0.000000|14=0.000000|6=0.000000|10=173|
E8=FIX.4.4|9=152|35=8|49=IMANDRA|56=BANZAI|34=3|43=Y|52=20170805-20:26:49.729|122=20170805-20:26:49.325|55=INTC|37=ID|11=ID|17=Test|150=B|39=0|54=1|58=Dummy|151=0.000000|14=0.000000|6=0.000000|10=179|

I8=FIX.4.4|35=0|34=4|43=Y|49=TW|52=<TIME>|122=<TIME-10>|56=ISLD|
I8=FIX.4.4|35=0|34=5|43=Y|49=TW|52=<TIME>|122=<TIME-10>|56=ISLD|
I8=FIX.4.4|35=0|34=6|43=Y|49=TW|52=<TIME>|122=<TIME-10>|56=ISLD|

# logout message and response
I8=FIX.4.4|35=5|34=7|49=TW|52=<TIME>|56=ISLD|
E8=FIX.4.4|9=49|35=5|34=5|49=ISLD|52=00000000-00:00:00.000|56=TW|10=0|

eDISCONNECT
