# PossDupFlag is set to 'Y', OrigSendingTime is greater than SendingTime, and
# MsgSeqNum is too low.  A Reject and Logout must be sent.

iCONNECT
I8=FIX.4.4|35=A|34=1|49=TW|52=<TIME>|56=ISLD|98=0|108=30|
E8=FIX.4.4|9=61|35=A|34=1|49=ISLD|52=00000000-00:00:00.000|56=TW|98=0|108=30|10=0|

# send two orders in sequence
I8=FIX.4.4|35=D|34=2|49=TW|52=<TIME>|56=ISLD|40=1|54=1|60=<TIME>|
E8=FIX.4.4|9=121|35=8|49=IMANDRA|56=BANZAI|34=2|52=00000000-00:00:00.000|37=0|17=1|150=8|39=8|54=1|58=Dummy|151=0.000000|14=0.000000|38=0.000000|10=149|
I8=FIX.4.4|35=D|34=3|49=TW|52=<TIME>|56=ISLD|40=1|54=1|60=<TIME>|
E8=FIX.4.4|9=121|35=8|49=IMANDRA|56=BANZAI|34=3|52=00000000-00:00:00.000|37=0|17=2|150=8|39=8|54=1|58=Dummy|151=0.000000|14=0.000000|38=0.000000|10=156|

# resend message 2 with larger OrigSendingTime
I8=FIX.4.4|35=D|34=2|49=TW|52=<TIME>|56=ISLD|43=Y|122=<TIME+10>|11=ID|40=1|54=1|60=<TIME>|

# reject message
E8=FIX.4.4|9=99|35=3|34=4|49=ISLD|52=00000000-00:00:00.000|56=TW|45=2|58=SendingTime accuracy problem|371=122|372=D|373=10|10=0|
# logout message
E8=FIX.4.4|9=49|35=5|34=5|49=ISLD|52=00000000-00:00:00.000|56=TW|10=0|
I8=FIX.4.4|35=5|34=4|49=TW|52=<TIME>|56=ISLD|
eDISCONNECT
