# PossDupFlag is set to 'Y', OrigSendingTime is does not exist
# A Reject message must be sent.

iCONNECT
I8=FIX.4.4|35=A|34=1|49=TW|52=<TIME>|56=ISLD|98=0|108=30|
E8=FIX.4.4|9=61|35=A|34=1|49=ISLD|52=00000000-00:00:00.000|56=TW|98=0|108=30|10=0|

# send two orders in sequence
I8=FIX.4.4|35=D|34=2|49=TW|52=<TIME>|56=ISLD|11=ID|21=3|40=1|54=1|55=INTC|60=<TIME>|
E8=FIX.4.4|9=121|35=8|49=IMANDRA|56=BANZAI|34=2|52=00000000-00:00:00.000|55=INTC|37=ID|11=ID|17=Test|150=B|39=0|54=1|151=0.014=0.06=0.0|10=144|
I8=FIX.4.4|35=D|34=3|49=TW|52=<TIME>|56=ISLD|11=ID|21=3|40=1|54=1|55=INTC|60=<TIME>|
E8=FIX.4.4|9=121|35=8|49=IMANDRA|56=BANZAI|34=3|52=00000000-00:00:00.000|55=INTC|37=ID|11=ID|17=Test|150=B|39=0|54=1|151=0.0|14=0.0|6=0.0|10=149|

# resend message 2 with no OrigSendingTime
I8=FIX.4.4|35=D|34=2|49=TW|52=<TIME>|56=ISLD|43=Y|11=ID|21=3|40=1|54=1|55=INTC|60=<TIME>|

# reject message
E8=FIX.4.4|9=98|35=3|34=4|49=ISLD|52=00000000-00:00:00.000|56=TW|45=2|58=Required tag missing|371=122|372=D|373=1|10=0|

# make sure sequence number no incremented
I8=FIX.4.4|35=1|34=4|49=TW|52=<TIME>|56=ISLD|112=HELLO|
E8=FIX.4.4|9=59|35=0|34=5|49=ISLD|52=00000000-00:00:00.000|56=TW|112=HELLO|10=0|

# logout message
I8=FIX.4.4|35=5|34=5|49=TW|52=<TIME>|56=ISLD|
E8=FIX.4.4|9=49|35=5|34=6|49=ISLD|52=00000000-00:00:00.000|56=TW|10=0|
eDISCONNECT
