# ResendRequest message requesting Admin messages

iCONNECT
I8=FIX.4.4|35=A|34=1|49=TW|52=<TIME>|56=ISLD|98=0|108=30|
E8=FIX.4.4|9=61|35=A|34=1|49=ISLD|52=00000000-00:00:00.000|56=TW|98=0|108=30|10=0|

# Admin messages 2-4
I8=FIX.4.4|35=1|34=2|49=TW|52=<TIME>|56=ISLD|112=HELLO|
E8=FIX.4.4|9=59|35=0|34=2|49=ISLD|52=00000000-00:00:00.000|56=TW|112=HELLO|10=0|
I8=FIX.4.4|35=1|34=3|49=TW|52=<TIME>|56=ISLD|112=HELLO|
E8=FIX.4.4|9=59|35=0|34=3|49=ISLD|52=00000000-00:00:00.000|56=TW|112=HELLO|10=0|
I8=FIX.4.4|35=1|34=4|49=TW|52=<TIME>|56=ISLD|112=HELLO|
E8=FIX.4.4|9=59|35=0|34=4|49=ISLD|52=00000000-00:00:00.000|56=TW|112=HELLO|10=0|

# Application Messages 5-6
I8=FIX.4.4|35=D|34=5|49=TW|52=<TIME>|56=ISLD|11=ID|40=1|54=1|60=<TIME>|
E8=FIX.4.4|9=121|35=8|49=IMANDRA|56=BANZAI|34=5|52=00000000-00:00:00.000|37=0|17=1|150=8|39=8|54=1|58=Dummy|151=0.000000|38=0.000000|14=0.000000|10=151|
I8=FIX.4.4|35=D|34=6|49=TW|52=<TIME>|56=ISLD|11=ID|40=1|54=1|60=<TIME>|
E8=FIX.4.4|9=120|35=8|49=IMANDRA|56=BANZAI|34=6|52=00000000-00:00:00.000|37=0|17=2|150=8|39=8|54=1|58=Dummy|151=0.000000|38=0.000000|14=0.000000|10=060|

# Admin Messages 7-8
I8=FIX.4.4|35=1|34=7|49=TW|52=<TIME>|56=ISLD|112=HELLO|
E8=FIX.4.4|9=59|35=0|34=7|49=ISLD|52=00000000-00:00:00.000|56=TW|112=HELLO|10=0|
I8=FIX.4.4|35=1|34=8|49=TW|52=<TIME>|56=ISLD|112=HELLO|
E8=FIX.4.4|9=59|35=0|34=8|49=ISLD|52=00000000-00:00:00.000|56=TW|112=HELLO|10=0|

# Application Messages 9
I8=FIX.4.4|35=D|34=9|49=TW|52=<TIME>|56=ISLD|11=ID|40=1|54=1|60=<TIME>|
E8=FIX.4.4|9=120|35=8|49=IMANDRA|56=BANZAI|34=9|52=00000000-00:00:00.000|37=0|17=3|150=8|39=8|54=1|58=Dummy|151=0.000000|14=0.000000|38=0.000000|10=098|

# Admin messages 2-4
I8=FIX.4.4|35=2|34=10|49=TW|52=<TIME>|56=ISLD|7=2|16=4|
E8=FIX.4.4|9=87|35=4|34=2|43=Y|49=ISLD|52=00000000-00:00:00.000|56=TW|122=00000000-00:00:00|36=5|123=Y|10=0|

# Admin messages 2-4, App messages 5-6
I8=FIX.4.4|35=2|34=11|49=TW|52=<TIME>|56=ISLD|7=2|16=6|
E8=FIX.4.4|9=87|35=4|34=2|43=Y|49=ISLD|52=00000000-00:00:00.000|56=TW|122=00000000-00:00:00|36=5|123=Y|10=0|
E8=FIX.4.4|9=152|35=8|49=IMANDRA|56=BANZAI|34=5|43=Y|52=00000000-00:00:00.000|122=00000000-00:00:00.000|37=0|17=1|150=8|39=8|54=1|58=Dummy|151=0.000000|38=0.000000|14=0.000000|10=180|
E8=FIX.4.4|9=151|35=8|49=IMANDRA|56=BANZAI|34=6|43=Y|52=00000000-00:00:00.000|122=00000000-00:00:00.000|37=0|17=2|150=8|39=8|54=1|58=Dummy|151=0.000000|38=0.000000|14=0.000000|10=089|

# Admin messages 2-4, App messages 5-6, Admin messages 7-8
I8=FIX.4.4|35=2|34=12|49=TW|52=<TIME>|56=ISLD|7=2|16=8|
E8=FIX.4.4|9=87|35=4|34=2|43=Y|49=ISLD|52=00000000-00:00:00.000|56=TW|122=00000000-00:00:00|36=5|123=Y|10=0|
E8=FIX.4.4|9=152|35=8|49=IMANDRA|56=BANZAI|34=5|43=Y|52=00000000-00:00:00.000|122=00000000-00:00:00.000|37=0|17=1|150=8|39=8|54=1|58=Dummy|151=0.000000|38=0.000000|14=0.000000|10=180|
E8=FIX.4.4|9=151|35=8|49=IMANDRA|56=BANZAI|34=6|43=Y|52=00000000-00:00:00.000|122=00000000-00:00:00.000|37=0|17=2|150=8|39=8|54=1|58=Dummy|151=0.000000|38=0.000000|14=0.000000|10=089|
E8=FIX.4.4|9=87|35=4|34=7|43=Y|49=ISLD|52=00000000-00:00:00.000|56=TW|122=00000000-00:00:00|36=9|123=Y|10=0|

# Admin messages 2-4, App messages 5-6, Admin messages 7-8, App message 9
I8=FIX.4.4|35=2|34=13|49=TW|52=<TIME>|56=ISLD|7=2|16=9|
E8=FIX.4.4|9=87|35=4|34=2|43=Y|49=ISLD|52=00000000-00:00:00.000|56=TW|122=00000000-00:00:00|36=5|123=Y|10=0|
E8=FIX.4.4|9=152|35=8|49=IMANDRA|56=BANZAI|34=5|43=Y|52=00000000-00:00:00.000|122=00000000-00:00:00.000|37=0|17=1|150=8|39=8|54=1|58=Dummy|151=0.000000|38=0.000000|14=0.000000|10=180|
E8=FIX.4.4|9=151|35=8|49=IMANDRA|56=BANZAI|34=6|43=Y|52=00000000-00:00:00.000|122=00000000-00:00:00.000|37=0|17=2|150=8|39=8|54=1|58=Dummy|151=0.000000|38=0.000000|14=0.000000|10=089|
E8=FIX.4.4|9=87|35=4|34=7|43=Y|49=ISLD|52=00000000-00:00:00.000|56=TW|122=00000000-00:00:00|36=9|123=Y|10=0|
E8=FIX.4.4|9=151|35=8|49=IMANDRA|56=BANZAI|34=9|43=Y|52=00000000-00:00:00.000|122=00000000-00:00:00.000|37=0|17=3|150=8|39=8|54=1|58=Dummy|151=0.000000|38=0.000000|14=0.000000|10=126|

# Request message to 0 (infinity)
I8=FIX.4.4|35=2|34=14|49=TW|52=<TIME>|56=ISLD|7=2|16=0|
E8=FIX.4.4|9=87|35=4|34=2|43=Y|49=ISLD|52=00000000-00:00:00.000|56=TW|122=00000000-00:00:00|36=5|123=Y|10=0|
E8=FIX.4.4|9=152|35=8|49=IMANDRA|56=BANZAI|34=5|43=Y|52=00000000-00:00:00.000|122=00000000-00:00:00.000|37=0|17=1|150=8|39=8|54=1|58=Dummy|151=0.000000|38=0.000000|14=0.000000|10=180|
E8=FIX.4.4|9=151|35=8|49=IMANDRA|56=BANZAI|34=6|43=Y|52=00000000-00:00:00.000|122=00000000-00:00:00.000|37=0|17=2|150=8|39=8|54=1|58=Dummy|151=0.000000|38=0.000000|14=0.000000|10=089|
E8=FIX.4.4|9=87|35=4|34=7|43=Y|49=ISLD|52=00000000-00:00:00.000|56=TW|122=00000000-00:00:00|36=9|123=Y|10=0|
E8=FIX.4.4|9=151|35=8|49=IMANDRA|56=BANZAI|34=9|43=Y|52=00000000-00:00:00.000|122=00000000-00:00:00.000|37=0|17=3|150=8|39=8|54=1|58=Dummy|151=0.000000|38=0.000000|14=0.000000|10=126|

# make sure our seq numbers are still correct
I8=FIX.4.4|35=1|34=15|49=TW|52=<TIME>|56=ISLD|112=HELLO|
E8=FIX.4.4|9=60|35=0|34=10|49=ISLD|52=00000000-00:00:00.000|56=TW|112=HELLO|10=0|

# logout message and response
I8=FIX.4.4|35=5|34=16|49=TW|52=<TIME>|56=ISLD|
E8=FIX.4.4|9=50|35=5|34=11|49=ISLD|52=00000000-00:00:00.000|56=TW|10=0|
eDISCONNECT

