# ResendRequest message requesting Application messages

iCONNECT
I8=FIX.4.4|35=A|34=1|49=TW|52=<TIME>|56=ISLD|98=0|108=30|
E8=FIX.4.4|9=61|35=A|34=1|49=ISLD|52=00000000-00:00:00.000|56=TW|98=0|108=30|10=0|

I8=FIX.4.4|35=D|34=2|49=TW|52=<TIME>|56=ISLD|11=ID|21=3|40=1|54=1|55=INTC|60=<TIME>|
E8=FIX.4.4|9=121|35=8|49=IMANDRA|56=BANZAI|34=2|52=00000000-00:00:00.000|55=INTC|37=ID|11=ID|17=Test|150=B|39=0|54=1|151=0.0000|14=0.0000|6=0.0000|10=148|
I8=FIX.4.4|35=D|34=3|49=TW|52=<TIME>|56=ISLD|11=ID|21=3|40=1|54=1|55=CDG|60=<TIME>|
E8=FIX.4.4|9=120|35=8|49=IMANDRA|56=BANZAI|34=3|52=00000000-00:00:00.000|55=CDG|37=ID|11=ID|17=Test|150=B|39=0|54=1|151=0.0000|14=0.0000|6=0.0000|10=056|
I8=FIX.4.4|35=D|34=4|49=TW|52=<TIME>|56=ISLD|11=ID|21=3|40=1|54=1|55=IVP|60=<TIME>|
E8=FIX.4.4|9=120|35=8|49=IMANDRA|56=BANZAI|34=4|52=00000000-00:00:00.000|55=IVP|37=ID|11=ID|17=Test|150=B|39=0|54=1|151=0.0000|14=0.0000|6=0.0000|10=095|

# Only application messages requested, all should be resent
I8=FIX.4.4|35=2|34=5|49=TW|52=<TIME>|56=ISLD|7=2|16=4|
E8=FIX.4.4|9=152|35=8|49=IMANDRA|56=BANZAI|34=2|43=Y|52=00000000-00:00:00.000|122=00000000-00:00:00.000|55=INTC|37=ID|11=ID|17=Test|150=B|39=0|54=1|151=0.0000|14=0.0000|6=0.0000|10=162|
E8=FIX.4.4|9=151|35=8|49=IMANDRA|56=BANZAI|34=3|43=Y|52=00000000-00:00:00.000|122=00000000-00:00:00.000|55=CDG|37=ID|11=ID|17=Test|150=B|39=0|54=1|151=0.0000|14=0.0000|6=0.0000|10=070|
E8=FIX.4.4|9=151|35=8|49=IMANDRA|56=BANZAI|34=4|43=Y|52=00000000-00:00:00.000|122=00000000-00:00:00.000|55=IVP|37=ID|11=ID|17=Test|150=B|39=0|54=1|151=0.0000|14=0.0000|6=0.0000|10=109|

# make sure our seq numbers are still correct
I8=FIX.4.4|35=1|34=6|49=TW|52=<TIME>|56=ISLD|112=HELLO|
E8=FIX.4.4|9=59|35=0|34=5|49=ISLD|52=00000000-00:00:00.000|56=TW|112=HELLO|10=0|

# Request message to 0 (infinity)
I8=FIX.4.4|35=2|34=7|49=TW|52=<TIME>|56=ISLD|7=2|16=0|
E8=FIX.4.4|9=152|35=8|49=IMANDRA|56=BANZAI|34=2|43=Y|52=00000000-00:00:00.000|122=00000000-00:00:00.000|55=INTC|37=ID|11=ID|17=Test|150=B|39=0|54=1|151=0.0000|14=0.0000|6=0.0000|10=162|
E8=FIX.4.4|9=151|35=8|49=IMANDRA|56=BANZAI|34=3|43=Y|52=00000000-00:00:00.000|122=00000000-00:00:00.000|55=CDG|37=ID|11=ID|17=Test|150=B|39=0|54=1|151=0.0000|14=0.0000|6=0.0000|10=070|
E8=FIX.4.4|9=151|35=8|49=IMANDRA|56=BANZAI|34=4|43=Y|52=00000000-00:00:00.000|122=00000000-00:00:00.000|55=IVP|37=ID|11=ID|17=Test|150=B|39=0|54=1|151=0.0000|14=0.0000|6=0.0000|10=109|
E8=FIX.4.4|9=87|35=4|34=5|43=Y|49=ISLD|52=20040227-19:56:48|56=TW|122=00000000-00:00:00.000|36=6|123=Y|10=068|

# logout message and response
I8=FIX.4.4|35=5|34=8|49=TW|52=<TIME>|56=ISLD|
E8=FIX.4.4|9=49|35=5|34=6|49=ISLD|52=00000000-00:00:00.000|56=TW|10=0|
eDISCONNECT
