# ResendRequest message requesting Admin messages

iCONNECT
I8=FIX.4.4|35=A|34=1|49=TW|52=<TIME>|56=ISLD|98=0|108=30|
E8=FIX.4.4|9=61|35=A|34=1|49=ISLD|52=00000000-00:00:00.000|56=TW|98=0|108=30|10=0|

I8=FIX.4.4|35=1|34=2|49=TW|52=<TIME>|56=ISLD|112=HELLO|
E8=FIX.4.4|9=59|35=0|34=2|49=ISLD|52=00000000-00:00:00.000|56=TW|112=HELLO|10=0|
I8=FIX.4.4|35=1|34=3|49=TW|52=<TIME>|56=ISLD|112=HELLO|
E8=FIX.4.4|9=59|35=0|34=3|49=ISLD|52=00000000-00:00:00.000|56=TW|112=HELLO|10=0|
I8=FIX.4.4|35=1|34=4|49=TW|52=<TIME>|56=ISLD|112=HELLO|
E8=FIX.4.4|9=59|35=0|34=4|49=ISLD|52=00000000-00:00:00.000|56=TW|112=HELLO|10=0|

# Sending a testrequest with ahead SeqNum = 9. Expecting a ResendRequest
I8=FIX.4.4|35=1|34=9|49=TW|52=<TIME>|56=ISLD|112=HELLO|10=0|
E8=FIX.4.4|9=87|35=2|34=5|49=ISLD|52=00000000-00:00:00.000|56=TW|7=5|16=0|10=019|
    
# Sending a SequenceReset, with GapFill up to SeqNum 12 - overshooting last message 
I8=FIX.4.4|35=4|49=TW|56=ISLD|34=5|43=Y|52=<TIME>|122=<TIME-1>|36=12|123=Y|

# Checking that SeqNums are properly reset
I8=FIX.4.4|35=1|34=13|49=TW|52=<TIME>|56=ISLD|112=HELLO|
E8=FIX.4.4|9=59|35=0|34=6|49=ISLD|52=00000000-00:00:00.000|56=TW|112=HELLO|10=0|

# logout message and response
I8=FIX.4.4|35=5|34=11|49=TW|52=<TIME>|56=ISLD|
E8=FIX.4.4|9=49|35=5|34=7|49=ISLD|52=00000000-00:00:00.000|56=TW|10=0|
