iCONNECT
I8=FIX.4.4|35=A|34=1|49=TW|52=<TIME>|56=ISLD|98=0|108=30|
E8=FIX.4.4|9=61|35=A|34=1|49=ISLD|52=00000000-00:00:00.000|56=TW|98=0|108=30|10=0|

I8=FIX.4.4|35=D|34=2|49=TW|52=<TIME>|56=ISLD|11=ID|21=3|40=1|54=1|55=INTC|60=<TIME>|
E8=FIX.4.4|9=136|35=8|49=TW|56=ISLD|34=2|52=00000000-00:00:00.000|55=INTC|37=ID|11=ID|17=Test|150=B|39=0|54=1|151=0.000000|14=0.000000|6=0.000000|

I8=FIX.4.4|35=D|34=3|49=TW|52=<TIME>|56=ISLD|11=ID|21=3|40=1|54=1|55=INTC|60=<TIME>|
E8=FIX.4.4|9=136|35=8|49=TW|56=ISLD|34=3|52=00000000-00:00:00.000|55=INTC|37=ID|11=ID|17=Test|150=B|39=0|54=1|151=0.000000|14=0.000000|6=0.000000|

# Sending message 15 when last message sent was 3
I8=FIX.4.4|35=0|34=8|49=TW|52=<TIME>|56=ISLD|
E8=FIX.4.4|9=58|35=2|34=4|49=ISLD|52=00000000-00:00:00.000|56=TW|7=4|16=0|10=0|

# Resend messags 4
I8=FIX.4.4|35=D|34=4|49=TW|52=<TIME>|56=ISLD|43=Y|122=<TIME-10>|11=ID|21=3|40=1|54=1|55=INTC|60=<TIME>|

# Sequence Reset to 10
I8=FIX.4.4|35=4|34=5|49=TW|52=<TIME>|56=ISLD|123=Y|36=10|

# Resend message 11
I8=FIX.4.4|35=D|34=11|49=TW|52=<TIME>|56=ISLD|43=Y|122=<TIME-10>|11=ID|21=3|40=1|54=1|55=INTC|60=<TIME>|

# Sequence Reset to 15
I8=FIX.4.4|35=4|34=12|49=TW|52=<TIME>|56=ISLD|123=Y|36=15|

# Expecting cache replay execreports
E8=FIX.4.4|9=136|35=8|49=TW|56=ISLD|34=5|52=00000000-00:00:00.000|55=INTC|37=ID|11=ID|17=Test|150=B|39=0|54=1|151=0.000000|14=0.000000|6=0.000000|
E8=FIX.4.4|9=136|35=8|49=TW|56=ISLD|34=6|52=00000000-00:00:00.000|55=INTC|37=ID|11=ID|17=Test|150=B|39=0|54=1|151=0.000000|14=0.000000|6=0.000000|

# logout message and response
I8=FIX.4.4|35=5|34=9|49=TW|52=<TIME>|56=ISLD|
E8=FIX.4.4|9=49|35=5|34=7|49=ISLD|52=00000000-00:00:00.000|56=TW|10=0|

eDISCONNECT
