iCONNECT

I8=FIX.4.4|35=A|34=1|49=TW|52=<TIME>|56=ISLD|98=0|141=Y|108=30|
E8=FIX.4.4|35=A|34=1|49=ISLD|52=<TIME>|56=TW|98=0|108=30|
# Send some test requests
I8=FIX.4.4|35=1|34=2|49=TW|52=<TIME>|56=ISLD|112=HELLO|
E8=FIX.4.4|9=59|35=0|34=2|49=ISLD|52=00000000-00:00:00.000|56=TW|112=HELLO|10=0|
I8=FIX.4.4|35=1|34=3|49=TW|52=<TIME>|56=ISLD|112=HELLO|
E8=FIX.4.4|9=59|35=0|34=3|49=ISLD|52=00000000-00:00:00.000|56=TW|112=HELLO|10=0|
I8=FIX.4.4|35=1|34=4|49=TW|52=<TIME>|56=ISLD|112=HELLO|
E8=FIX.4.4|9=59|35=0|34=4|49=ISLD|52=00000000-00:00:00.000|56=TW|112=HELLO|10=0|
# Logout
I8=FIX.4.4|35=5|34=5|49=TW|52=<TIME>|56=ISLD|
E8=FIX.4.4|35=5|34=5|49=ISLD|52=00000000-00:00:00.000|56=TW|10=0|

# Logon again + ResetReq
I8=FIX.4.4|35=A|34=1|49=TW|52=<TIME>|56=ISLD|98=0|141=Y|108=30|
E8=FIX.4.4|35=A|34=1|49=ISLD|52=<TIME>|56=TW|98=0|108=30|


eDISCONNECT
