# ResendRequest message requesting Admin messages

iCONNECT
I8=FIX.4.4|35=A|34=1|49=TW|52=<TIME>|56=ISLD|98=0|108=30|
E8=FIX.4.4|9=61|35=A|34=1|49=ISLD|52=00000000-00:00:00.000|56=TW|98=0|108=30|10=0|
I8=FIX.4.4|35=1|34=2|49=TW|52=<TIME>|56=ISLD|112=HELLO|
E8=FIX.4.4|9=59|35=0|34=2|49=ISLD|52=00000000-00:00:00.000|56=TW|112=HELLO|10=0|
I8=FIX.4.4|35=1|34=3|49=TW|52=<TIME>|56=ISLD|112=HELLO|
E8=FIX.4.4|9=59|35=0|34=3|49=ISLD|52=00000000-00:00:00.000|56=TW|112=HELLO|10=0|
I8=FIX.4.4|35=1|34=4|49=TW|52=<TIME>|56=ISLD|112=HELLO|
E8=FIX.4.4|9=59|35=0|34=4|49=ISLD|52=00000000-00:00:00.000|56=TW|112=HELLO|10=0|

# Sending a bad testrequest: without TestReqID and with wrong SeqNum = 2
I8=FIX.4.4|35=1|34=2|49=TW|52=<TIME>|56=ISLD|

# Expecting a SessionReject
E8=FIX.4.4|9=87|35=3|34=5|49=ISLD|52=00000000-00:00:00.000|56=TW|45=2|371=112|372=1|373=1|

# Next testrequest has a SeqNum = 5, should be OK
I8=FIX.4.4|35=1|34=5|49=TW|52=<TIME>|56=ISLD|112=HELLO|
E8=FIX.4.4|9=59|35=0|34=6|49=ISLD|52=00000000-00:00:00.000|56=TW|112=HELLO|10=0|
