8=FIX.4.4|9=133|35=D|34=215|49=CLIENT12|52=20100225-19:41:57.316|56=B|1=Marcel|106=Kostya|11=13346|21=1|40=2|44=5|54=1|59=0|60=20100225-19:39:52.020|10=154|8=FIX.4.2|9=42|35=0|49=A|56=B|34=12|52=20100304-07:59:30|10=185|8=FIX.4.4|9=130|35=D|34=215|49=CLIENT12|52=20100225-19:41:57.316|56=B|167=OPT|1=Marcel|11=13346|21=1|40=2|44=5|54=1|59=0|60=20100225-19:39:52.020|10=022|8=FIX.4.4|9=130|35=D|34=215|49=CLIENT12|52=20100225-19:41:57.316|56=B|167=PPT|1=Marcel|11=13346|21=1|40=2|44=5|54=1|59=0|60=20100225-19:39:52.020|10=023|8=FIX.4.2|9=42|35=0|49=A|56=B|34=12|52=20100304-07:59:30|10=185|
