# When we receive a valid logon, we must respond with one

iCONNECT
I8=FIX.4.2|35=A|34=36|49=00099089|56=EURONEXT|115=00099089|142=AESSGX01|52=00000000-00:00:00.000|98=0|108=30|10=0|
E8=FIX.4.2|9=61|35=A|34=1|49=ISLD|52=00000000-00:00:00.000|56=TW|98=0|108=30|10=0|

I8=FIX.4.2|35=D|34=37|49=00099089|56=EURONEXT|52=00000000-00:00:00.000|11=Test5|21=1|110=0|55=AT0000641352|54=2|60=00000000-00:00:00.000|38=89947|40=2|44=29.5400|15=EUR|59=B|9941=A|10078=A|9949=WBAH|10079=0|21017=0|8015=2|4|9933=1|47=3|453=1|448=314159|447=P|452=12|2376=22|10=0|
E8=FIX.4.2|9=49|35=5|34=2|49=ISLD|52=00000000-00:00:00.000|56=TW|10=0|
E8=FIX.4.2|9=49|35=5|34=2|49=ISLD|52=00000000-00:00:00.000|56=TW|10=0|

# logout message and response
I8=FIX.4.2|35=5|34=38|49=00099089|52=<TIME>|56=EURONEXT|
E8=FIX.4.2|9=49|35=5|34=2|49=ISLD|52=00000000-00:00:00.000|56=TW|10=0|
eDISCONNECT

